{
  "contractName": "GooseCoin",
  "abi": [
    {
      "inputs": [],
      "stateMutability": "nonpayable",
      "type": "constructor"
    },
    {
      "anonymous": false,
      "inputs": [
        {
          "indexed": true,
          "internalType": "address",
          "name": "owner",
          "type": "address"
        },
        {
          "indexed": true,
          "internalType": "address",
          "name": "spender",
          "type": "address"
        },
        {
          "indexed": false,
          "internalType": "uint256",
          "name": "value",
          "type": "uint256"
        }
      ],
      "name": "Approval",
      "type": "event"
    },
    {
      "anonymous": false,
      "inputs": [
        {
          "indexed": true,
          "internalType": "address",
          "name": "from",
          "type": "address"
        },
        {
          "indexed": true,
          "internalType": "address",
          "name": "to",
          "type": "address"
        },
        {
          "indexed": false,
          "internalType": "uint256",
          "name": "value",
          "type": "uint256"
        }
      ],
      "name": "Transfer",
      "type": "event"
    },
    {
      "inputs": [
        {
          "internalType": "address",
          "name": "owner",
          "type": "address"
        },
        {
          "internalType": "address",
          "name": "spender",
          "type": "address"
        }
      ],
      "name": "allowance",
      "outputs": [
        {
          "internalType": "uint256",
          "name": "",
          "type": "uint256"
        }
      ],
      "stateMutability": "view",
      "type": "function",
      "constant": true
    },
    {
      "inputs": [
        {
          "internalType": "address",
          "name": "spender",
          "type": "address"
        },
        {
          "internalType": "uint256",
          "name": "amount",
          "type": "uint256"
        }
      ],
      "name": "approve",
      "outputs": [
        {
          "internalType": "bool",
          "name": "",
          "type": "bool"
        }
      ],
      "stateMutability": "nonpayable",
      "type": "function"
    },
    {
      "inputs": [
        {
          "internalType": "address",
          "name": "account",
          "type": "address"
        }
      ],
      "name": "balanceOf",
      "outputs": [
        {
          "internalType": "uint256",
          "name": "",
          "type": "uint256"
        }
      ],
      "stateMutability": "view",
      "type": "function",
      "constant": true
    },
    {
      "inputs": [],
      "name": "decimals",
      "outputs": [
        {
          "internalType": "uint8",
          "name": "",
          "type": "uint8"
        }
      ],
      "stateMutability": "view",
      "type": "function",
      "constant": true
    },
    {
      "inputs": [
        {
          "internalType": "address",
          "name": "spender",
          "type": "address"
        },
        {
          "internalType": "uint256",
          "name": "subtractedValue",
          "type": "uint256"
        }
      ],
      "name": "decreaseAllowance",
      "outputs": [
        {
          "internalType": "bool",
          "name": "",
          "type": "bool"
        }
      ],
      "stateMutability": "nonpayable",
      "type": "function"
    },
    {
      "inputs": [
        {
          "internalType": "address",
          "name": "spender",
          "type": "address"
        },
        {
          "internalType": "uint256",
          "name": "addedValue",
          "type": "uint256"
        }
      ],
      "name": "increaseAllowance",
      "outputs": [
        {
          "internalType": "bool",
          "name": "",
          "type": "bool"
        }
      ],
      "stateMutability": "nonpayable",
      "type": "function"
    },
    {
      "inputs": [],
      "name": "initialCreationSupply",
      "outputs": [
        {
          "internalType": "uint256",
          "name": "",
          "type": "uint256"
        }
      ],
      "stateMutability": "view",
      "type": "function",
      "constant": true
    },
    {
      "inputs": [],
      "name": "name",
      "outputs": [
        {
          "internalType": "string",
          "name": "",
          "type": "string"
        }
      ],
      "stateMutability": "view",
      "type": "function",
      "constant": true
    },
    {
      "inputs": [],
      "name": "symbol",
      "outputs": [
        {
          "internalType": "string",
          "name": "",
          "type": "string"
        }
      ],
      "stateMutability": "view",
      "type": "function",
      "constant": true
    },
    {
      "inputs": [],
      "name": "tokenExchangeRate",
      "outputs": [
        {
          "internalType": "uint256",
          "name": "",
          "type": "uint256"
        }
      ],
      "stateMutability": "view",
      "type": "function",
      "constant": true
    },
    {
      "inputs": [],
      "name": "totalSupply",
      "outputs": [
        {
          "internalType": "uint256",
          "name": "",
          "type": "uint256"
        }
      ],
      "stateMutability": "view",
      "type": "function",
      "constant": true
    },
    {
      "inputs": [
        {
          "internalType": "address",
          "name": "recipient",
          "type": "address"
        },
        {
          "internalType": "uint256",
          "name": "amount",
          "type": "uint256"
        }
      ],
      "name": "transfer",
      "outputs": [
        {
          "internalType": "bool",
          "name": "",
          "type": "bool"
        }
      ],
      "stateMutability": "nonpayable",
      "type": "function"
    },
    {
      "inputs": [
        {
          "internalType": "address",
          "name": "sender",
          "type": "address"
        },
        {
          "internalType": "address",
          "name": "recipient",
          "type": "address"
        },
        {
          "internalType": "uint256",
          "name": "amount",
          "type": "uint256"
        }
      ],
      "name": "transferFrom",
      "outputs": [
        {
          "internalType": "bool",
          "name": "",
          "type": "bool"
        }
      ],
      "stateMutability": "nonpayable",
      "type": "function"
    },
    {
      "inputs": [
        {
          "internalType": "uint256",
          "name": "amount",
          "type": "uint256"
        }
      ],
      "name": "createTokens",
      "outputs": [],
      "stateMutability": "payable",
      "type": "function",
      "payable": true
    },
    {
      "inputs": [
        {
          "internalType": "address",
          "name": "receiver",
          "type": "address"
        },
        {
          "internalType": "uint256",
          "name": "amount",
          "type": "uint256"
        }
      ],
      "name": "sendCoin",
      "outputs": [
        {
          "internalType": "bool",
          "name": "sufficient",
          "type": "bool"
        }
      ],
      "stateMutability": "nonpayable",
      "type": "function"
    },
    {
      "inputs": [
        {
          "internalType": "address",
          "name": "addr",
          "type": "address"
        }
      ],
      "name": "getBalance",
      "outputs": [
        {
          "internalType": "uint256",
          "name": "",
          "type": "uint256"
        }
      ],
      "stateMutability": "view",
      "type": "function",
      "constant": true
    },
    {
      "inputs": [
        {
          "internalType": "uint256",
          "name": "x",
          "type": "uint256"
        },
        {
          "internalType": "uint256",
          "name": "y",
          "type": "uint256"
        }
      ],
      "name": "safeAdd",
      "outputs": [
        {
          "internalType": "uint256",
          "name": "",
          "type": "uint256"
        }
      ],
      "stateMutability": "pure",
      "type": "function",
      "constant": true
    },
    {
      "inputs": [
        {
          "internalType": "uint256",
          "name": "x",
          "type": "uint256"
        },
        {
          "internalType": "uint256",
          "name": "y",
          "type": "uint256"
        }
      ],
      "name": "safeSubtract",
      "outputs": [
        {
          "internalType": "uint256",
          "name": "",
          "type": "uint256"
        }
      ],
      "stateMutability": "pure",
      "type": "function",
      "constant": true
    },
    {
      "inputs": [
        {
          "internalType": "uint256",
          "name": "x",
          "type": "uint256"
        },
        {
          "internalType": "uint256",
          "name": "y",
          "type": "uint256"
        }
      ],
      "name": "safeMult",
      "outputs": [
        {
          "internalType": "uint256",
          "name": "",
          "type": "uint256"
        }
      ],
      "stateMutability": "pure",
      "type": "function",
      "constant": true
    }
  ],
  "bytecode": "0x60806040523480156200001157600080fd5b506040518060400160405280600981526020017f476f6f7365436f696e00000000000000000000000000000000000000000000008152506040518060400160405280600581526020017f474f4f534500000000000000000000000000000000000000000000000000000081525081600390805190602001906200009692919062000259565b508060049080519060200190620000af92919062000259565b505050620000d0336b015b6a759f4835dc24000000620000d660201b60201c565b620004a7565b600073ffffffffffffffffffffffffffffffffffffffff168273ffffffffffffffffffffffffffffffffffffffff16141562000149576040517f08c379a000000000000000000000000000000000000000000000000000000000815260040162000140906200035c565b60405180910390fd5b6200015d600083836200024f60201b60201c565b8060026000828254620001719190620003ac565b92505081905550806000808473ffffffffffffffffffffffffffffffffffffffff1673ffffffffffffffffffffffffffffffffffffffff1681526020019081526020016000206000828254620001c89190620003ac565b925050819055508173ffffffffffffffffffffffffffffffffffffffff16600073ffffffffffffffffffffffffffffffffffffffff167fddf252ad1be2c89b69c2b068fc378daa952ba7f163c4a11628f55a4df523b3ef836040516200022f91906200037e565b60405180910390a36200024b600083836200025460201b60201c565b5050565b505050565b505050565b828054620002679062000413565b90600052602060002090601f0160209004810192826200028b5760008555620002d7565b82601f10620002a657805160ff1916838001178555620002d7565b82800160010185558215620002d7579182015b82811115620002d6578251825591602001919060010190620002b9565b5b509050620002e69190620002ea565b5090565b5b8082111562000305576000816000905550600101620002eb565b5090565b600062000318601f836200039b565b91507f45524332303a206d696e7420746f20746865207a65726f2061646472657373006000830152602082019050919050565b620003568162000409565b82525050565b60006020820190508181036000830152620003778162000309565b9050919050565b60006020820190506200039560008301846200034b565b92915050565b600082825260208201905092915050565b6000620003b98262000409565b9150620003c68362000409565b9250827fffffffffffffffffffffffffffffffffffffffffffffffffffffffffffffffff03821115620003fe57620003fd62000449565b5b828201905092915050565b6000819050919050565b600060028204905060018216806200042c57607f821691505b6020821081141562000443576200044262000478565b5b50919050565b7f4e487b7100000000000000000000000000000000000000000000000000000000600052601160045260246000fd5b7f4e487b7100000000000000000000000000000000000000000000000000000000600052602260045260246000fd5b611c5f80620004b76000396000f3fe6080604052600436106101145760003560e01c806370a08231116100a0578063a9059cbb11610064578063a9059cbb146103e2578063d30fbd0d1461041f578063dd62ed3e1461045c578063e6cb901314610499578063f8b2cb4f146104d657610114565b806370a08231146102e45780637e1f2bb81461032157806390b98a111461033d57806395d89b411461037a578063a457c2d7146103a557610114565b806323b872dd116100e757806323b872dd146101d7578063313ce56714610214578063395093511461023f5780634172d0801461027c57806364b3302d146102a757610114565b806306fdde0314610119578063095ea7b3146101445780630d3e3ccc1461018157806318160ddd146101ac575b600080fd5b34801561012557600080fd5b5061012e610513565b60405161013b919061181a565b60405180910390f35b34801561015057600080fd5b5061016b600480360381019061016691906113ee565b6105a5565b60405161017891906117ff565b60405180910390f35b34801561018d57600080fd5b506101966105c3565b6040516101a3919061193c565b60405180910390f35b3480156101b857600080fd5b506101c16105d3565b6040516101ce919061193c565b60405180910390f35b3480156101e357600080fd5b506101fe60048036038101906101f9919061139f565b6105dd565b60405161020b91906117ff565b60405180910390f35b34801561022057600080fd5b506102296106d5565b6040516102369190611957565b60405180910390f35b34801561024b57600080fd5b50610266600480360381019061026191906113ee565b6106de565b60405161027391906117ff565b60405180910390f35b34801561028857600080fd5b5061029161078a565b60405161029e919061193c565b60405180910390f35b3480156102b357600080fd5b506102ce60048036038101906102c99190611453565b610791565b6040516102db919061193c565b60405180910390f35b3480156102f057600080fd5b5061030b6004803603810190610306919061133a565b6107f8565b604051610318919061193c565b60405180910390f35b61033b6004803603810190610336919061142a565b610840565b005b34801561034957600080fd5b50610364600480360381019061035f91906113ee565b6108c8565b60405161037191906117ff565b60405180910390f35b34801561038657600080fd5b5061038f610a36565b60405161039c919061181a565b60405180910390f35b3480156103b157600080fd5b506103cc60048036038101906103c791906113ee565b610ac8565b6040516103d991906117ff565b60405180910390f35b3480156103ee57600080fd5b50610409600480360381019061040491906113ee565b610bb3565b60405161041691906117ff565b60405180910390f35b34801561042b57600080fd5b5061044660048036038101906104419190611453565b610bd1565b604051610453919061193c565b60405180910390f35b34801561046857600080fd5b50610483600480360381019061047e9190611363565b610c24565b604051610490919061193c565b60405180910390f35b3480156104a557600080fd5b506104c060048036038101906104bb9190611453565b610cab565b6040516104cd919061193c565b60405180910390f35b3480156104e257600080fd5b506104fd60048036038101906104f8919061133a565b610d09565b60405161050a919061193c565b60405180910390f35b60606003805461052290611b2b565b80601f016020809104026020016040519081016040528092919081815260200182805461054e90611b2b565b801561059b5780601f106105705761010080835404028352916020019161059b565b820191906000526020600020905b81548152906001019060200180831161057e57829003601f168201915b5050505050905090565b60006105b96105b2610d52565b8484610d5a565b6001905092915050565b6b015b6a759f4835dc2400000081565b6000600254905090565b60006105ea848484610f25565b6000600160008673ffffffffffffffffffffffffffffffffffffffff1673ffffffffffffffffffffffffffffffffffffffff1681526020019081526020016000206000610635610d52565b73ffffffffffffffffffffffffffffffffffffffff1673ffffffffffffffffffffffffffffffffffffffff168152602001908152602001600020549050828110156106b5576040517f08c379a00000000000000000000000000000000000000000000000000000000081526004016106ac9061189c565b60405180910390fd5b6106c9856106c1610d52565b858403610d5a565b60019150509392505050565b60006012905090565b60006107806106eb610d52565b8484600160006106f9610d52565b73ffffffffffffffffffffffffffffffffffffffff1673ffffffffffffffffffffffffffffffffffffffff16815260200190815260200160002060008873ffffffffffffffffffffffffffffffffffffffff1673ffffffffffffffffffffffffffffffffffffffff1681526020019081526020016000205461077b919061198e565b610d5a565b6001905092915050565b62010d8881565b60008082846107a09190611a15565b905060008414806107bb57508284826107b991906119e4565b145b6107ee577f4e487b7100000000000000000000000000000000000000000000000000000000600052600160045260246000fd5b8091505092915050565b60008060008373ffffffffffffffffffffffffffffffffffffffff1673ffffffffffffffffffffffffffffffffffffffff168152602001908152602001600020549050919050565b6000670de0b6b3a76400006108588362010d88610791565b6108629190611a15565b905080600560003373ffffffffffffffffffffffffffffffffffffffff1673ffffffffffffffffffffffffffffffffffffffff16815260200190815260200160002060008282546108b3919061198e565b925050819055506108c433826111a6565b5050565b600081600560003373ffffffffffffffffffffffffffffffffffffffff1673ffffffffffffffffffffffffffffffffffffffff16815260200190815260200160002054101561091a5760009050610a30565b81600560003373ffffffffffffffffffffffffffffffffffffffff1673ffffffffffffffffffffffffffffffffffffffff16815260200190815260200160002060008282546109699190611a6f565b9250508190555081600560008573ffffffffffffffffffffffffffffffffffffffff1673ffffffffffffffffffffffffffffffffffffffff16815260200190815260200160002060008282546109bf919061198e565b925050819055508273ffffffffffffffffffffffffffffffffffffffff163373ffffffffffffffffffffffffffffffffffffffff167fddf252ad1be2c89b69c2b068fc378daa952ba7f163c4a11628f55a4df523b3ef84604051610a23919061193c565b60405180910390a3600190505b92915050565b606060048054610a4590611b2b565b80601f0160208091040260200160405190810160405280929190818152602001828054610a7190611b2b565b8015610abe5780601f10610a9357610100808354040283529160200191610abe565b820191906000526020600020905b815481529060010190602001808311610aa157829003601f168201915b5050505050905090565b60008060016000610ad7610d52565b73ffffffffffffffffffffffffffffffffffffffff1673ffffffffffffffffffffffffffffffffffffffff16815260200190815260200160002060008573ffffffffffffffffffffffffffffffffffffffff1673ffffffffffffffffffffffffffffffffffffffff16815260200190815260200160002054905082811015610b94576040517f08c379a0000000000000000000000000000000000000000000000000000000008152600401610b8b906118fc565b60405180910390fd5b610ba8610b9f610d52565b85858403610d5a565b600191505092915050565b6000610bc7610bc0610d52565b8484610f25565b6001905092915050565b600081831015610c0a577f4e487b7100000000000000000000000000000000000000000000000000000000600052600160045260246000fd5b60008284610c189190611a6f565b90508091505092915050565b6000600160008473ffffffffffffffffffffffffffffffffffffffff1673ffffffffffffffffffffffffffffffffffffffff16815260200190815260200160002060008373ffffffffffffffffffffffffffffffffffffffff1673ffffffffffffffffffffffffffffffffffffffff16815260200190815260200160002054905092915050565b6000808284610cba919061198e565b9050838110158015610ccc5750828110155b610cff577f4e487b7100000000000000000000000000000000000000000000000000000000600052600160045260246000fd5b8091505092915050565b6000600560008373ffffffffffffffffffffffffffffffffffffffff1673ffffffffffffffffffffffffffffffffffffffff168152602001908152602001600020549050919050565b600033905090565b600073ffffffffffffffffffffffffffffffffffffffff168373ffffffffffffffffffffffffffffffffffffffff161415610dca576040517f08c379a0000000000000000000000000000000000000000000000000000000008152600401610dc1906118dc565b60405180910390fd5b600073ffffffffffffffffffffffffffffffffffffffff168273ffffffffffffffffffffffffffffffffffffffff161415610e3a576040517f08c379a0000000000000000000000000000000000000000000000000000000008152600401610e319061185c565b60405180910390fd5b80600160008573ffffffffffffffffffffffffffffffffffffffff1673ffffffffffffffffffffffffffffffffffffffff16815260200190815260200160002060008473ffffffffffffffffffffffffffffffffffffffff1673ffffffffffffffffffffffffffffffffffffffff168152602001908152602001600020819055508173ffffffffffffffffffffffffffffffffffffffff168373ffffffffffffffffffffffffffffffffffffffff167f8c5be1e5ebec7d5bd14f71427d1e84f3dd0314c0f7b2291e5b200ac8c7c3b92583604051610f18919061193c565b60405180910390a3505050565b600073ffffffffffffffffffffffffffffffffffffffff168373ffffffffffffffffffffffffffffffffffffffff161415610f95576040517f08c379a0000000000000000000000000000000000000000000000000000000008152600401610f8c906118bc565b60405180910390fd5b600073ffffffffffffffffffffffffffffffffffffffff168273ffffffffffffffffffffffffffffffffffffffff161415611005576040517f08c379a0000000000000000000000000000000000000000000000000000000008152600401610ffc9061183c565b60405180910390fd5b611010838383611306565b60008060008573ffffffffffffffffffffffffffffffffffffffff1673ffffffffffffffffffffffffffffffffffffffff16815260200190815260200160002054905081811015611096576040517f08c379a000000000000000000000000000000000000000000000000000000000815260040161108d9061187c565b60405180910390fd5b8181036000808673ffffffffffffffffffffffffffffffffffffffff1673ffffffffffffffffffffffffffffffffffffffff16815260200190815260200160002081905550816000808573ffffffffffffffffffffffffffffffffffffffff1673ffffffffffffffffffffffffffffffffffffffff1681526020019081526020016000206000828254611129919061198e565b925050819055508273ffffffffffffffffffffffffffffffffffffffff168473ffffffffffffffffffffffffffffffffffffffff167fddf252ad1be2c89b69c2b068fc378daa952ba7f163c4a11628f55a4df523b3ef8460405161118d919061193c565b60405180910390a36111a084848461130b565b50505050565b600073ffffffffffffffffffffffffffffffffffffffff168273ffffffffffffffffffffffffffffffffffffffff161415611216576040517f08c379a000000000000000000000000000000000000000000000000000000000815260040161120d9061191c565b60405180910390fd5b61122260008383611306565b8060026000828254611234919061198e565b92505081905550806000808473ffffffffffffffffffffffffffffffffffffffff1673ffffffffffffffffffffffffffffffffffffffff1681526020019081526020016000206000828254611289919061198e565b925050819055508173ffffffffffffffffffffffffffffffffffffffff16600073ffffffffffffffffffffffffffffffffffffffff167fddf252ad1be2c89b69c2b068fc378daa952ba7f163c4a11628f55a4df523b3ef836040516112ee919061193c565b60405180910390a36113026000838361130b565b5050565b505050565b505050565b60008135905061131f81611bfb565b92915050565b60008135905061133481611c12565b92915050565b60006020828403121561134c57600080fd5b600061135a84828501611310565b91505092915050565b6000806040838503121561137657600080fd5b600061138485828601611310565b925050602061139585828601611310565b9150509250929050565b6000806000606084860312156113b457600080fd5b60006113c286828701611310565b93505060206113d386828701611310565b92505060406113e486828701611325565b9150509250925092565b6000806040838503121561140157600080fd5b600061140f85828601611310565b925050602061142085828601611325565b9150509250929050565b60006020828403121561143c57600080fd5b600061144a84828501611325565b91505092915050565b6000806040838503121561146657600080fd5b600061147485828601611325565b925050602061148585828601611325565b9150509250929050565b61149881611ab5565b82525050565b60006114a982611972565b6114b3818561197d565b93506114c3818560208601611af8565b6114cc81611bea565b840191505092915050565b60006114e460238361197d565b91507f45524332303a207472616e7366657220746f20746865207a65726f206164647260008301527f65737300000000000000000000000000000000000000000000000000000000006020830152604082019050919050565b600061154a60228361197d565b91507f45524332303a20617070726f766520746f20746865207a65726f20616464726560008301527f73730000000000000000000000000000000000000000000000000000000000006020830152604082019050919050565b60006115b060268361197d565b91507f45524332303a207472616e7366657220616d6f756e742065786365656473206260008301527f616c616e636500000000000000000000000000000000000000000000000000006020830152604082019050919050565b600061161660288361197d565b91507f45524332303a207472616e7366657220616d6f756e742065786365656473206160008301527f6c6c6f77616e63650000000000000000000000000000000000000000000000006020830152604082019050919050565b600061167c60258361197d565b91507f45524332303a207472616e736665722066726f6d20746865207a65726f20616460008301527f64726573730000000000000000000000000000000000000000000000000000006020830152604082019050919050565b60006116e260248361197d565b91507f45524332303a20617070726f76652066726f6d20746865207a65726f2061646460008301527f72657373000000000000000000000000000000000000000000000000000000006020830152604082019050919050565b600061174860258361197d565b91507f45524332303a2064656372656173656420616c6c6f77616e63652062656c6f7760008301527f207a65726f0000000000000000000000000000000000000000000000000000006020830152604082019050919050565b60006117ae601f8361197d565b91507f45524332303a206d696e7420746f20746865207a65726f2061646472657373006000830152602082019050919050565b6117ea81611ae1565b82525050565b6117f981611aeb565b82525050565b6000602082019050611814600083018461148f565b92915050565b60006020820190508181036000830152611834818461149e565b905092915050565b60006020820190508181036000830152611855816114d7565b9050919050565b600060208201905081810360008301526118758161153d565b9050919050565b60006020820190508181036000830152611895816115a3565b9050919050565b600060208201905081810360008301526118b581611609565b9050919050565b600060208201905081810360008301526118d58161166f565b9050919050565b600060208201905081810360008301526118f5816116d5565b9050919050565b600060208201905081810360008301526119158161173b565b9050919050565b60006020820190508181036000830152611935816117a1565b9050919050565b600060208201905061195160008301846117e1565b92915050565b600060208201905061196c60008301846117f0565b92915050565b600081519050919050565b600082825260208201905092915050565b600061199982611ae1565b91506119a483611ae1565b9250827fffffffffffffffffffffffffffffffffffffffffffffffffffffffffffffffff038211156119d9576119d8611b5d565b5b828201905092915050565b60006119ef82611ae1565b91506119fa83611ae1565b925082611a0a57611a09611b8c565b5b828204905092915050565b6000611a2082611ae1565b9150611a2b83611ae1565b9250817fffffffffffffffffffffffffffffffffffffffffffffffffffffffffffffffff0483118215151615611a6457611a63611b5d565b5b828202905092915050565b6000611a7a82611ae1565b9150611a8583611ae1565b925082821015611a9857611a97611b5d565b5b828203905092915050565b6000611aae82611ac1565b9050919050565b60008115159050919050565b600073ffffffffffffffffffffffffffffffffffffffff82169050919050565b6000819050919050565b600060ff82169050919050565b60005b83811015611b16578082015181840152602081019050611afb565b83811115611b25576000848401525b50505050565b60006002820490506001821680611b4357607f821691505b60208210811415611b5757611b56611bbb565b5b50919050565b7f4e487b7100000000000000000000000000000000000000000000000000000000600052601160045260246000fd5b7f4e487b7100000000000000000000000000000000000000000000000000000000600052601260045260246000fd5b7f4e487b7100000000000000000000000000000000000000000000000000000000600052602260045260246000fd5b6000601f19601f8301169050919050565b611c0481611aa3565b8114611c0f57600080fd5b50565b611c1b81611ae1565b8114611c2657600080fd5b5056fea2646970667358221220b2a8fba630ed0a3bca90dbbd94cfedff71b1c791c58d9bce3d9ef89c2cf902ea64736f6c63430008000033",
  "immutableReferences": {},
  "source": "// SPDX-License-Identifier: MIT\n\npragma solidity ^0.8.0;\n\nimport \"@openzeppelin/contracts/token/ERC20/ERC20.sol\";\n\ncontract GooseCoin is ERC20 {\n    mapping(address => uint256) balances;\n\n    uint256 public constant initialCreationSupply = 420 * (10**6) * 10**18; // 18 decimals\n    uint256 public constant tokenExchangeRate = 69000; // 69000 GOOSE tokens per 1 ETH\n    // uint256 public constant tokenCreationCap =  420 * (10**6) * 10**18; // 18 decimals\n    \n    constructor() ERC20(\"GooseCoin\", \"GOOSE\") {\n        // 10,000,000 total supply\n        // _mint(msg.sender, 1000000000000000000000000000);\n\n        _mint(msg.sender, initialCreationSupply);\n    }\n\n    /// @dev Accepts ether and creates new GOOSE tokens.\n    function createTokens(uint256 amount) payable external {\n\n      //msg.value was used as the first parameter here. Where does this value actually come from?\n      uint256 tokens = safeMult(amount, tokenExchangeRate) * 10**18; \n\n      balances[msg.sender] += tokens;  \n      _mint(msg.sender, tokens); \n    }\n\n    function sendCoin(address receiver, uint256 amount)\n        public\n        returns (bool sufficient)\n    {\n        if (balances[msg.sender] < amount) return false;\n        balances[msg.sender] -= amount;\n        balances[receiver] += amount;\n        emit Transfer(msg.sender, receiver, amount);\n        return true;\n    }\n\n    function getBalance(address addr) public view returns (uint256) {\n        return balances[addr];\n    }\n\n    function safeAdd(uint256 x, uint256 y) public pure returns(uint256) {\n      uint256 z = x + y;\n      assert((z >= x) && (z >= y));\n      return z;\n    }\n\n    function safeSubtract(uint256 x, uint256 y) public pure returns(uint256) {\n      assert(x >= y);\n      uint256 z = x - y;\n      return z;\n    }\n\n    function safeMult(uint256 x, uint256 y) public pure returns(uint256) {\n      uint256 z = x * y;\n      assert((x == 0)||(z/x == y));\n      return z;\n    }\n}\n",
  "sourcePath": "/Users/willrowston/workspace/goose-coin/contracts/GooseCoin.sol",
  "compiler": {
    "name": "solc",
    "version": "0.8.0+commit.c7dfd78e.Emscripten.clang"
  },
  "schemaVersion": "3.4.3",
  "updatedAt": "2022-01-06T03:21:49.795Z",
  "networkType": "ethereum",
  "devdoc": {
    "kind": "dev",
    "methods": {
      "allowance(address,address)": {
        "details": "See {IERC20-allowance}."
      },
      "approve(address,uint256)": {
        "details": "See {IERC20-approve}. Requirements: - `spender` cannot be the zero address."
      },
      "balanceOf(address)": {
        "details": "See {IERC20-balanceOf}."
      },
      "createTokens(uint256)": {
        "details": "Accepts ether and creates new GOOSE tokens."
      },
      "decimals()": {
        "details": "Returns the number of decimals used to get its user representation. For example, if `decimals` equals `2`, a balance of `505` tokens should be displayed to a user as `5.05` (`505 / 10 ** 2`). Tokens usually opt for a value of 18, imitating the relationship between Ether and Wei. This is the value {ERC20} uses, unless this function is overridden; NOTE: This information is only used for _display_ purposes: it in no way affects any of the arithmetic of the contract, including {IERC20-balanceOf} and {IERC20-transfer}."
      },
      "decreaseAllowance(address,uint256)": {
        "details": "Atomically decreases the allowance granted to `spender` by the caller. This is an alternative to {approve} that can be used as a mitigation for problems described in {IERC20-approve}. Emits an {Approval} event indicating the updated allowance. Requirements: - `spender` cannot be the zero address. - `spender` must have allowance for the caller of at least `subtractedValue`."
      },
      "increaseAllowance(address,uint256)": {
        "details": "Atomically increases the allowance granted to `spender` by the caller. This is an alternative to {approve} that can be used as a mitigation for problems described in {IERC20-approve}. Emits an {Approval} event indicating the updated allowance. Requirements: - `spender` cannot be the zero address."
      },
      "name()": {
        "details": "Returns the name of the token."
      },
      "symbol()": {
        "details": "Returns the symbol of the token, usually a shorter version of the name."
      },
      "totalSupply()": {
        "details": "See {IERC20-totalSupply}."
      },
      "transfer(address,uint256)": {
        "details": "See {IERC20-transfer}. Requirements: - `recipient` cannot be the zero address. - the caller must have a balance of at least `amount`."
      },
      "transferFrom(address,address,uint256)": {
        "details": "See {IERC20-transferFrom}. Emits an {Approval} event indicating the updated allowance. This is not required by the EIP. See the note at the beginning of {ERC20}. Requirements: - `sender` and `recipient` cannot be the zero address. - `sender` must have a balance of at least `amount`. - the caller must have allowance for ``sender``'s tokens of at least `amount`."
      }
    },
    "version": 1
  },
  "userdoc": {
    "kind": "user",
    "methods": {},
    "version": 1
  }
}